:020000040800F2
:100000000808002089010008F5010008F501000832
:10001000F5010008F5010008F501000800000000E6
:10002000000000000000000000000000F5010008D2
:10003000F501000800000000F5010008F5010008C6
:10004000F5010008F5010008F5010008F5010008B8
:10005000F5010008F5010008F5010008F5010008A8
:10006000F5010008F5010008F5010008F501000898
:10007000F5010008F5010008F5010008F501000888
:10008000F5010008F5010008F5010008F501000878
:10009000F5010008F5010008F5010008F501000868
:1000A000F5010008F5010008F5010008F501000858
:1000B000F5010008F5010008F5010008F501000848
:1000C000F5010008F5010008F5010008F501000838
:1000D000F5010008F5010008F5010008F501000828
:1000E000F5010008F5010008F5010008F501000818
:1000F000F5010008F5010008F5010008F501000808
:10010000F5010008F5010008F5010008F5010008F7
:10011000F5010008F5010008F5010008F5010008E7
:10012000F5010008F5010008F5010008F5010008D7
:10013000F5010008F5010008F5010008F5010008C7
:10014000F5010008F5010008F5010008F5010008B7
:10015000F5010008F5010008F5010008F5010008A7
:10016000F5010008F5010008F5010008F501000897
:10017000F5010008F5010008F5010008F501000887
:10018000F5010008F501000880B582B000AF40F627
:10019000A003C0F600037B6040F20003C2F200033C
:1001A0003B600BE07B681A683B681A603B6803F1B0
:1001B00004033B607B6803F104037B603A6840F210
:1001C0000003C2F200039A42ECD3084808494FF0FA
:1001D00000028842B8BF40F8042BFFF6FAAF00F0E7
:1001E0000DF807F10807BD4680BD000000000020A3
:1001F0000400002080B400AFFEE700BF80B582B0ED
:1002000002AF4FF0010300934FF0000301934FF44E
:100210000050C4F201004FF000014FF000024FF413
:100220000063C4F2020300F0CFFA4FF40050C4F2AE
:10023000010000F01BFB024640F20003C2F2000383
:100240001A60F2E780B483B000AF78600B46FB70B1
:10025000FB78002B0CD04FF46053C4F202034FF430
:100260006052C4F20202116B7A680A431A630DE00D
:100270004FF46053C4F202034FF46052C4F202021E
:10028000116B7A686FEA02020A401A6307F10C07E1
:10029000BD4680BC704700BF80B483B000AF7860BB
:1002A0000B46FB70FB78002B0CD04FF46053C4F26C
:1002B00002034FF46052C4F20202516C7A680A439E
:1002C0005A640DE04FF46053C4F202034FF46052DD
:1002D000C4F20202516C7A686FEA02020A405A6460
:1002E00007F10C07BD4680BC704700BF80B483B0E7
:1002F00000AF78600B46FB70FB78002B0CD04FF4FE
:100300006053C4F202034FF46052C4F20202516A15
:100310007A680A435A620DE04FF46053C4F2020354
:100320004FF46052C4F20202516A7A686FEA020224
:100330000A405A6207F10C07BD4680BC704700BFF7
:1003400080B500AF4FF480704FF00101FFF7CEFF92
:100350004FF480704FF00001FFF7C8FF80BD00BF71
:1003600080B485B000AF786039604FF00003FB6067
:100370004FF00003FB727B685B68FB60FB6823F057
:10038000407323F48073FB603B681B794FEA0322C0
:100390003B681B681343FA681343FB607B68FA6889
:1003A0005A607B689B68FB60FA684FF2FD73CCF281
:1003B000FF031340FB603B681A693B68DB681A4324
:1003C0003B689B681A433B685B794FEA43031343DE
:1003D000FA681343FB607B68FA689A607B68DB6AA3
:1003E000FB60FB6823F47003FB603B681B7D03F13B
:1003F000FF33DAB2FB7A1343FB72FB7A4FEA035303
:10040000FA681343FB607B68FA68DA6207F1140745
:10041000BD4680BC704700BF80B483B000AF786039
:100420000B46FB70FB78002B06D07B689B6843F083
:1004300001027B689A6005E07B689B6823F00102FB
:100440007B689A6007F10C07BD4680BC704700BF0F
:1004500080B485B000AF7860F970BA707B704FF0EF
:100460000003FB604FF00003BB60FB78092B27D92A
:100470007B68DB68FB60FA7813464FEA43039B18FE
:10048000A3F11E034FF0070202FA03F3BB60BB683F
:100490006FEA0303FA681340FB607978FA78134631
:1004A0004FEA43039B18A3F11E0301FA03F3BB6059
:1004B000FA68BB681343FB607B68FA68DA6022E085
:1004C0007B681B69FB60FA7813464FEA43039B186D
:1004D0004FF0070202FA03F3BB60BB686FEA030345
:1004E000FA681340FB607978FA7813464FEA4303C1
:1004F0009B1801FA03F3BB60FA68BB681343FB6007
:100500007B68FA681A61BB78062B27D87B685B6B1F
:10051000FB60BB7803F1FF3213464FEA83039B185D
:100520004FF01F0202FA03F3BB60BB686FEA0303DC
:10053000FA681340FB60F978BB7803F1FF32134689
:100540004FEA83039B1801FA03F3BB60FA68BB68A8
:100550001343FB607B68FA685A6351E0BB780C2B4D
:1005600027D87B681B6BFB60BA7813464FEA83037E
:100570009B18A3F123034FF01F0202FA03F3BB60A1
:10058000BB686FEA0303FA681340FB60F978BA7836
:1005900013464FEA83039B18A3F1230301FA03F3E5
:1005A000BB60FA68BB681343FB607B68FA681A6338
:1005B00026E07B68DB6AFB60BA7813464FEA830368
:1005C0009B18A3F141034FF01F0202FA03F3BB6033
:1005D000BB686FEA0303FA681340FB60F978BA78E6
:1005E00013464FEA83039B18A3F1410301FA03F377
:1005F000BB60FA68BB681343FB607B68FA68DA6229
:1006000007F11407BD4680BC704700BF80B483B0BB
:1006100000AF78607B689B6843F080427B689A609B
:1006200007F10C07BD4680BC704700BF80B483B0A3
:1006300000AF78607B68DB6C9BB2184607F10C0753
:10064000BD4680BC704700BF80B485B000AF786005
:100650000B46FB704FF00003FB737B681A68FB7856
:100660001340002B03D04FF00103FB7302E04FF067
:100670000003FB73FB7B184607F11407BD4680BCE3
:10068000704700BF80B487B000AF786039604FF02A
:1006900000037B614FF000033B614FF00003FB6000
:1006A0004FF000037B6186E07B694FF0010202FAA4
:1006B00003F33B613B681A683B691340FB60FA68CF
:1006C0003B699A4273D17B681A687B694FEA43039E
:1006D0004FF0030101FA03F36FEA03031A407B684A
:1006E0001A607B681A683B681B7919467B694FEA78
:1006F000430301FA03F31A437B681A603B681B79D2
:10070000012B03D03B681B79022B34D17B689A689C
:100710007B694FEA43034FF0030101FA03F36FEAE9
:1007200003031A407B689A607B689A683B685B7930
:1007300019467B694FEA430301FA03F31A437B68C6
:100740009A607B685A687B699BB24FF0010101FA9D
:1007500003F36FEA03031A407B685A607B685A68A8
:100760003B689B7919467B699BB201FA03F39BB204
:100770001A437B685A607B68DA687B699BB24FEAF0
:1007800043034FF0030101FA03F36FEA03031A4036
:100790007B68DA607B68DA683B68DB7919467B69DD
:1007A0004FEA430301FA03F31A437B68DA607B697B
:1007B00003F101037B617B690F2B7FF675AF07F1B6
:1007C0001C07BD4680BC704780B58CB000AFF86098
:1007D000B9607A603B604FF480704FF00101FFF721
:1007E0005BFD4FF004004FF00101FFF72BFDBB6BE9
:1007F0003B614FF003033B754FF00003FB7507F1BE
:10080000100338681946FFF73DFFFFF799FD4FF0D9
:100810000003BB62FB6BBB614FF001037B774FF0C2
:1008200000037B624FF000033B624FF0010387F847
:100830002C304FF000033B7707F11803F868194696
:10084000FFF78EFDF8684FF00101FFF7E5FDBB688B
:10085000DAB27B68DBB2F86811464FF00102FFF7AD
:10086000F7FD07F13007BD4680BD00BF80B582B0FF
:1008700000AF78607868FFF7C9FE00BF78684FF076
:100880000201FFF7E1FE0346002BF7D07868FFF77F
:10089000CDFE0346184607F10807BD4680BD00BFE0
:0400000508000000EF
:00000001FF
